:0E09E80050656F706C6520636F756E743A0019
:040A0A00020B0000DB
:1008FA001209B77F801209F67BFF7A0979E8120993
:10090A00927FC81209F63097132097FD3090FD2088
:10091A0090FD050CE50C7023050B801F30901C2000
:10092A0090FD3097FD2097FDD3E50C9400E50B94DC
:10093A00004008E50C150C7002150BAF0CAE0B123B
:04094A00094E80AF23
:1009B7007F381209F67F0E1209F67F061209F67FB5
:0909C700011209F67F0C0209F689
:0A09F6008FA0C2801209D0C2832234
:0A0A00008FA0D2801209D0C2832219
:100992008B088A09890AAB08AA09A90A12088C607D
:1009A20013050AE50A7002050914F912088CFF12F0
:0509B2000A0080E222B2
:0609D000D2837FE87E03E4
:1009D600E4FDFCC3ED9FEC9E50070DBD00010C80AD
:0109E600F21E
:0109E70022ED
:10094E008E088F097F041209F6E509450870077FA6
:10095E0030120A008029E50945086023AE08AF0968
:10096E007C007D0A1208A5ED2430FF120A00AE08A5
:10097E00AF097C007D0A1208A58E088F0980D77FEB
:04098E00060209F65E
:03000000020800F3
:0C080000787FE4F6D8FD75810C020847F3
:10088C00BB010689828A83E0225002E722BBFE026A
:09089C00E32289828A83E493229D
:1008A500BC000BBE0029EF8DF084FFADF022E4CC37
:1008B500F875F008EF2FFFEE33FEEC33FCEE9DEC00
:1008C500984005FCEE9DFE0FD5F0E9E4CEFD22ED46
:1008D500F8F5F0EE8420D21CFEADF075F008EF2F90
:1008E500FFED33FD4007985006D5F0F222C398FD81
:0508F5000FD5F0EA221E
:10080C000208FAE493A3F8E493A34003F68001F200
:10081C0008DFF48029E493A3F85407240CC8C333ED
:10082C00C4540F4420C8834004F456800146F6DFBC
:10083C00E4800B0102040810204080900A0AE47E38
:10084C00019360BCA3FF543F30E509541FFEE493B1
:10085C00A360010ECF54C025E060A840B8E493A378
:10086C00FAE493A3F8E493A3C8C582C8CAC583CAA3
:10087C00F0A3C8C582C8CAC583CADFE9DEE780BE5B
:010A0E0000E7
:00000001FF
